{
  "_format": "hh-sol-artifact-1",
  "contractName": "Valut",
  "sourceName": "contracts/Vault.sol",
  "abi": [
    {
      "inputs": [],
      "stateMutability": "nonpayable",
      "type": "constructor"
    },
    {
      "anonymous": false,
      "inputs": [
        {
          "indexed": true,
          "internalType": "address",
          "name": "previousOwner",
          "type": "address"
        },
        {
          "indexed": true,
          "internalType": "address",
          "name": "newOwner",
          "type": "address"
        }
      ],
      "name": "OwnershipTransferred",
      "type": "event"
    },
    {
      "anonymous": false,
      "inputs": [
        {
          "indexed": true,
          "internalType": "bytes32",
          "name": "role",
          "type": "bytes32"
        },
        {
          "indexed": true,
          "internalType": "bytes32",
          "name": "previousAdminRole",
          "type": "bytes32"
        },
        {
          "indexed": true,
          "internalType": "bytes32",
          "name": "newAdminRole",
          "type": "bytes32"
        }
      ],
      "name": "RoleAdminChanged",
      "type": "event"
    },
    {
      "anonymous": false,
      "inputs": [
        {
          "indexed": true,
          "internalType": "bytes32",
          "name": "role",
          "type": "bytes32"
        },
        {
          "indexed": true,
          "internalType": "address",
          "name": "account",
          "type": "address"
        },
        {
          "indexed": true,
          "internalType": "address",
          "name": "sender",
          "type": "address"
        }
      ],
      "name": "RoleGranted",
      "type": "event"
    },
    {
      "anonymous": false,
      "inputs": [
        {
          "indexed": true,
          "internalType": "bytes32",
          "name": "role",
          "type": "bytes32"
        },
        {
          "indexed": true,
          "internalType": "address",
          "name": "account",
          "type": "address"
        },
        {
          "indexed": true,
          "internalType": "address",
          "name": "sender",
          "type": "address"
        }
      ],
      "name": "RoleRevoked",
      "type": "event"
    },
    {
      "inputs": [],
      "name": "DEFAULT_ADMIN_ROLE",
      "outputs": [
        {
          "internalType": "bytes32",
          "name": "",
          "type": "bytes32"
        }
      ],
      "stateMutability": "view",
      "type": "function"
    },
    {
      "inputs": [],
      "name": "WITHDRAWER_ROLE",
      "outputs": [
        {
          "internalType": "bytes32",
          "name": "",
          "type": "bytes32"
        }
      ],
      "stateMutability": "view",
      "type": "function"
    },
    {
      "inputs": [
        {
          "internalType": "uint256",
          "name": "_amount",
          "type": "uint256"
        }
      ],
      "name": "deposit",
      "outputs": [],
      "stateMutability": "nonpayable",
      "type": "function"
    },
    {
      "inputs": [
        {
          "internalType": "bytes32",
          "name": "role",
          "type": "bytes32"
        }
      ],
      "name": "getRoleAdmin",
      "outputs": [
        {
          "internalType": "bytes32",
          "name": "",
          "type": "bytes32"
        }
      ],
      "stateMutability": "view",
      "type": "function"
    },
    {
      "inputs": [
        {
          "internalType": "bytes32",
          "name": "role",
          "type": "bytes32"
        },
        {
          "internalType": "uint256",
          "name": "index",
          "type": "uint256"
        }
      ],
      "name": "getRoleMember",
      "outputs": [
        {
          "internalType": "address",
          "name": "",
          "type": "address"
        }
      ],
      "stateMutability": "view",
      "type": "function"
    },
    {
      "inputs": [
        {
          "internalType": "bytes32",
          "name": "role",
          "type": "bytes32"
        }
      ],
      "name": "getRoleMemberCount",
      "outputs": [
        {
          "internalType": "uint256",
          "name": "",
          "type": "uint256"
        }
      ],
      "stateMutability": "view",
      "type": "function"
    },
    {
      "inputs": [
        {
          "internalType": "bytes32",
          "name": "role",
          "type": "bytes32"
        },
        {
          "internalType": "address",
          "name": "account",
          "type": "address"
        }
      ],
      "name": "grantRole",
      "outputs": [],
      "stateMutability": "nonpayable",
      "type": "function"
    },
    {
      "inputs": [
        {
          "internalType": "bytes32",
          "name": "role",
          "type": "bytes32"
        },
        {
          "internalType": "address",
          "name": "account",
          "type": "address"
        }
      ],
      "name": "hasRole",
      "outputs": [
        {
          "internalType": "bool",
          "name": "",
          "type": "bool"
        }
      ],
      "stateMutability": "view",
      "type": "function"
    },
    {
      "inputs": [],
      "name": "maxWithdrawAmount",
      "outputs": [
        {
          "internalType": "uint256",
          "name": "",
          "type": "uint256"
        }
      ],
      "stateMutability": "view",
      "type": "function"
    },
    {
      "inputs": [],
      "name": "owner",
      "outputs": [
        {
          "internalType": "address",
          "name": "",
          "type": "address"
        }
      ],
      "stateMutability": "view",
      "type": "function"
    },
    {
      "inputs": [],
      "name": "renounceOwnership",
      "outputs": [],
      "stateMutability": "nonpayable",
      "type": "function"
    },
    {
      "inputs": [
        {
          "internalType": "bytes32",
          "name": "role",
          "type": "bytes32"
        },
        {
          "internalType": "address",
          "name": "account",
          "type": "address"
        }
      ],
      "name": "renounceRole",
      "outputs": [],
      "stateMutability": "nonpayable",
      "type": "function"
    },
    {
      "inputs": [
        {
          "internalType": "bytes32",
          "name": "role",
          "type": "bytes32"
        },
        {
          "internalType": "address",
          "name": "account",
          "type": "address"
        }
      ],
      "name": "revokeRole",
      "outputs": [],
      "stateMutability": "nonpayable",
      "type": "function"
    },
    {
      "inputs": [
        {
          "internalType": "uint256",
          "name": "_maxAmount",
          "type": "uint256"
        }
      ],
      "name": "setMaxWithdrawAmount",
      "outputs": [],
      "stateMutability": "nonpayable",
      "type": "function"
    },
    {
      "inputs": [
        {
          "internalType": "contract IERC20",
          "name": "_token",
          "type": "address"
        }
      ],
      "name": "setToken",
      "outputs": [],
      "stateMutability": "nonpayable",
      "type": "function"
    },
    {
      "inputs": [
        {
          "internalType": "bool",
          "name": "_isEnabel",
          "type": "bool"
        }
      ],
      "name": "setWithdrarwEnable",
      "outputs": [],
      "stateMutability": "nonpayable",
      "type": "function"
    },
    {
      "inputs": [
        {
          "internalType": "bytes4",
          "name": "interfaceId",
          "type": "bytes4"
        }
      ],
      "name": "supportsInterface",
      "outputs": [
        {
          "internalType": "bool",
          "name": "",
          "type": "bool"
        }
      ],
      "stateMutability": "view",
      "type": "function"
    },
    {
      "inputs": [
        {
          "internalType": "address",
          "name": "newOwner",
          "type": "address"
        }
      ],
      "name": "transferOwnership",
      "outputs": [],
      "stateMutability": "nonpayable",
      "type": "function"
    },
    {
      "inputs": [
        {
          "internalType": "uint256",
          "name": "_amount",
          "type": "uint256"
        },
        {
          "internalType": "address",
          "name": "_to",
          "type": "address"
        }
      ],
      "name": "withdraw",
      "outputs": [],
      "stateMutability": "nonpayable",
      "type": "function"
    },
    {
      "inputs": [],
      "name": "withdrawEnable",
      "outputs": [
        {
          "internalType": "bool",
          "name": "",
          "type": "bool"
        }
      ],
      "stateMutability": "view",
      "type": "function"
    }
  ],
  "bytecode": "0x60806040523480156200001157600080fd5b5062000032620000266200005c60201b60201c565b6200006460201b60201c565b620000566000801b6200004a6200005c60201b60201c565b6200012860201b60201c565b620003ad565b600033905090565b60008060009054906101000a900473ffffffffffffffffffffffffffffffffffffffff169050816000806101000a81548173ffffffffffffffffffffffffffffffffffffffff021916908373ffffffffffffffffffffffffffffffffffffffff1602179055508173ffffffffffffffffffffffffffffffffffffffff168173ffffffffffffffffffffffffffffffffffffffff167f8be0079c531659141344cd1fd0a4f28419497f9722a3daafe3b4186f6b6457e060405160405180910390a35050565b6200013a82826200013e60201b60201c565b5050565b6200015082826200017c60201b60201c565b6200017781600260008581526020019081526020016000206200026d60201b90919060201c565b505050565b6200018e8282620002a560201b60201c565b6200026957600180600084815260200190815260200160002060000160008373ffffffffffffffffffffffffffffffffffffffff1673ffffffffffffffffffffffffffffffffffffffff16815260200190815260200160002060006101000a81548160ff0219169083151502179055506200020e6200005c60201b60201c565b73ffffffffffffffffffffffffffffffffffffffff168173ffffffffffffffffffffffffffffffffffffffff16837f2f8788117e7eff1d82e926ec794901d17c78024a50270940304540a733656f0d60405160405180910390a45b5050565b60006200029d836000018373ffffffffffffffffffffffffffffffffffffffff1660001b6200031060201b60201c565b905092915050565b60006001600084815260200190815260200160002060000160008373ffffffffffffffffffffffffffffffffffffffff1673ffffffffffffffffffffffffffffffffffffffff16815260200190815260200160002060009054906101000a900460ff16905092915050565b60006200032483836200038a60201b60201c565b6200037f57826000018290806001815401808255809150506001900390600052602060002001600090919091909150558260000180549050836001016000848152602001908152602001600020819055506001905062000384565b600090505b92915050565b600080836001016000848152602001908152602001600020541415905092915050565b61256a80620003bd6000396000f3fe608060405234801561001057600080fd5b506004361061012b5760003560e01c80639010d07c116100ad578063ca15c87311610071578063ca15c8731461031a578063d547741f1461034a578063df74e02814610366578063f2fde38b14610382578063f516440c1461039e5761012b565b80639010d07c1461026257806391d1485414610292578063a217fddf146102c2578063b5b68afe146102e0578063b6b55f25146102fe5761012b565b806336568abe116100f457806336568abe146101e45780635fe93e1714610200578063715018a61461021c57806385f438c1146102265780638da5cb5b146102445761012b565b8062f714ce1461013057806301ffc9a71461014c578063144fa6d71461017c578063248a9ca3146101985780632f2ff15d146101c8575b600080fd5b61014a600480360381019061014591906117ed565b6103bc565b005b61016660048036038101906101619190611885565b6105a9565b60405161017391906118cd565b60405180910390f35b61019660048036038101906101919190611926565b610623565b005b6101b260048036038101906101ad9190611989565b61066f565b6040516101bf91906119c5565b60405180910390f35b6101e260048036038101906101dd91906119e0565b61068f565b005b6101fe60048036038101906101f991906119e0565b6106b0565b005b61021a60048036038101906102159190611a4c565b610733565b005b610224610758565b005b61022e61076c565b60405161023b91906119c5565b60405180910390f35b61024c610790565b6040516102599190611a88565b60405180910390f35b61027c60048036038101906102779190611aa3565b6107b9565b6040516102899190611a88565b60405180910390f35b6102ac60048036038101906102a791906119e0565b6107e8565b6040516102b991906118cd565b60405180910390f35b6102ca610853565b6040516102d791906119c5565b60405180910390f35b6102e861085a565b6040516102f591906118cd565b60405180910390f35b61031860048036038101906103139190611ae3565b61086d565b005b610334600480360381019061032f9190611989565b61098a565b6040516103419190611b1f565b60405180910390f35b610364600480360381019061035f91906119e0565b6109ae565b005b610380600480360381019061037b9190611ae3565b6109cf565b005b61039c60048036038101906103979190611b3a565b6109e1565b005b6103a6610a64565b6040516103b39190611b1f565b60405180910390f35b6103c4610a6a565b73ffffffffffffffffffffffffffffffffffffffff166103e2610790565b73ffffffffffffffffffffffffffffffffffffffff16148061043157506104307f10dac8c06a04bec0b551627dad28bc00d6516b0caacd1c7b345fcdb5211334e461042b610a6a565b6107e8565b5b610470576040517f08c379a000000000000000000000000000000000000000000000000000000000815260040161046790611bc4565b60405180910390fd5b600560009054906101000a900460ff166104bf576040517f08c379a00000000000000000000000000000000000000000000000000000000081526004016104b690611c30565b60405180910390fd5b600454821115610504576040517f08c379a00000000000000000000000000000000000000000000000000000000081526004016104fb90611c9c565b60405180910390fd5b600360009054906101000a900473ffffffffffffffffffffffffffffffffffffffff1673ffffffffffffffffffffffffffffffffffffffff1663a9059cbb82846040518363ffffffff1660e01b8152600401610561929190611cbc565b6020604051808303816000875af1158015610580573d6000803e3d6000fd5b505050506040513d601f19601f820116820180604052508101906105a49190611cfa565b505050565b60007f5a05180f000000000000000000000000000000000000000000000000000000007bffffffffffffffffffffffffffffffffffffffffffffffffffffffff1916827bffffffffffffffffffffffffffffffffffffffffffffffffffffffff1916148061061c575061061b82610a72565b5b9050919050565b61062b610aec565b80600360006101000a81548173ffffffffffffffffffffffffffffffffffffffff021916908373ffffffffffffffffffffffffffffffffffffffff16021790555050565b600060016000838152602001908152602001600020600101549050919050565b6106988261066f565b6106a181610b6a565b6106ab8383610b7e565b505050565b6106b8610a6a565b73ffffffffffffffffffffffffffffffffffffffff168173ffffffffffffffffffffffffffffffffffffffff1614610725576040517f08c379a000000000000000000000000000000000000000000000000000000000815260040161071c90611d99565b60405180910390fd5b61072f8282610bb2565b5050565b61073b610aec565b80600560006101000a81548160ff02191690831515021790555050565b610760610aec565b61076a6000610be6565b565b7f10dac8c06a04bec0b551627dad28bc00d6516b0caacd1c7b345fcdb5211334e481565b60008060009054906101000a900473ffffffffffffffffffffffffffffffffffffffff16905090565b60006107e08260026000868152602001908152602001600020610caa90919063ffffffff16565b905092915050565b60006001600084815260200190815260200160002060000160008373ffffffffffffffffffffffffffffffffffffffff1673ffffffffffffffffffffffffffffffffffffffff16815260200190815260200160002060009054906101000a900460ff16905092915050565b6000801b81565b600560009054906101000a900460ff1681565b80600360009054906101000a900473ffffffffffffffffffffffffffffffffffffffff1673ffffffffffffffffffffffffffffffffffffffff166370a082316108b4610a6a565b6040518263ffffffff1660e01b81526004016108d09190611a88565b602060405180830381865afa1580156108ed573d6000803e3d6000fd5b505050506040513d601f19601f820116820180604052508101906109119190611dce565b1015610952576040517f08c379a000000000000000000000000000000000000000000000000000000000815260040161094990611e47565b60405180910390fd5b610987600360009054906101000a900473ffffffffffffffffffffffffffffffffffffffff16610980610a6a565b3084610cc4565b50565b60006109a760026000848152602001908152602001600020610d4d565b9050919050565b6109b78261066f565b6109c081610b6a565b6109ca8383610bb2565b505050565b6109d7610aec565b8060048190555050565b6109e9610aec565b600073ffffffffffffffffffffffffffffffffffffffff168173ffffffffffffffffffffffffffffffffffffffff1603610a58576040517f08c379a0000000000000000000000000000000000000000000000000000000008152600401610a4f90611ed9565b60405180910390fd5b610a6181610be6565b50565b60045481565b600033905090565b60007f7965db0b000000000000000000000000000000000000000000000000000000007bffffffffffffffffffffffffffffffffffffffffffffffffffffffff1916827bffffffffffffffffffffffffffffffffffffffffffffffffffffffff19161480610ae55750610ae482610d62565b5b9050919050565b610af4610a6a565b73ffffffffffffffffffffffffffffffffffffffff16610b12610790565b73ffffffffffffffffffffffffffffffffffffffff1614610b68576040517f08c379a0000000000000000000000000000000000000000000000000000000008152600401610b5f90611f45565b60405180910390fd5b565b610b7b81610b76610a6a565b610dcc565b50565b610b888282610e51565b610bad8160026000858152602001908152602001600020610f3190919063ffffffff16565b505050565b610bbc8282610f61565b610be1816002600085815260200190815260200160002061104390919063ffffffff16565b505050565b60008060009054906101000a900473ffffffffffffffffffffffffffffffffffffffff169050816000806101000a81548173ffffffffffffffffffffffffffffffffffffffff021916908373ffffffffffffffffffffffffffffffffffffffff1602179055508173ffffffffffffffffffffffffffffffffffffffff168173ffffffffffffffffffffffffffffffffffffffff167f8be0079c531659141344cd1fd0a4f28419497f9722a3daafe3b4186f6b6457e060405160405180910390a35050565b6000610cb98360000183611073565b60001c905092915050565b610d47846323b872dd60e01b858585604051602401610ce593929190611f65565b604051602081830303815290604052907bffffffffffffffffffffffffffffffffffffffffffffffffffffffff19166020820180517bffffffffffffffffffffffffffffffffffffffffffffffffffffffff838183161783525050505061109e565b50505050565b6000610d5b82600001611166565b9050919050565b60007f01ffc9a7000000000000000000000000000000000000000000000000000000007bffffffffffffffffffffffffffffffffffffffffffffffffffffffff1916827bffffffffffffffffffffffffffffffffffffffffffffffffffffffff1916149050919050565b610dd682826107e8565b610e4d57610de381611177565b610df18360001c60206111a4565b604051602001610e029291906120a5565b6040516020818303038152906040526040517f08c379a0000000000000000000000000000000000000000000000000000000008152600401610e449190612129565b60405180910390fd5b5050565b610e5b82826107e8565b610f2d57600180600084815260200190815260200160002060000160008373ffffffffffffffffffffffffffffffffffffffff1673ffffffffffffffffffffffffffffffffffffffff16815260200190815260200160002060006101000a81548160ff021916908315150217905550610ed2610a6a565b73ffffffffffffffffffffffffffffffffffffffff168173ffffffffffffffffffffffffffffffffffffffff16837f2f8788117e7eff1d82e926ec794901d17c78024a50270940304540a733656f0d60405160405180910390a45b5050565b6000610f59836000018373ffffffffffffffffffffffffffffffffffffffff1660001b6113e0565b905092915050565b610f6b82826107e8565b1561103f5760006001600084815260200190815260200160002060000160008373ffffffffffffffffffffffffffffffffffffffff1673ffffffffffffffffffffffffffffffffffffffff16815260200190815260200160002060006101000a81548160ff021916908315150217905550610fe4610a6a565b73ffffffffffffffffffffffffffffffffffffffff168173ffffffffffffffffffffffffffffffffffffffff16837ff6391f5c32d9c69d2a47ea670b442974b53935d1edc7fd64eb21e047a839171b60405160405180910390a45b5050565b600061106b836000018373ffffffffffffffffffffffffffffffffffffffff1660001b611450565b905092915050565b600082600001828154811061108b5761108a61214b565b5b9060005260206000200154905092915050565b6000611100826040518060400160405280602081526020017f5361666545524332303a206c6f772d6c6576656c2063616c6c206661696c65648152508573ffffffffffffffffffffffffffffffffffffffff166115649092919063ffffffff16565b90506000815114806111225750808060200190518101906111219190611cfa565b5b611161576040517f08c379a0000000000000000000000000000000000000000000000000000000008152600401611158906121ec565b60405180910390fd5b505050565b600081600001805490509050919050565b606061119d8273ffffffffffffffffffffffffffffffffffffffff16601460ff166111a4565b9050919050565b6060600060028360026111b7919061223b565b6111c1919061227d565b67ffffffffffffffff8111156111da576111d96122b1565b5b6040519080825280601f01601f19166020018201604052801561120c5781602001600182028036833780820191505090505b5090507f3000000000000000000000000000000000000000000000000000000000000000816000815181106112445761124361214b565b5b60200101907effffffffffffffffffffffffffffffffffffffffffffffffffffffffffffff1916908160001a9053507f7800000000000000000000000000000000000000000000000000000000000000816001815181106112a8576112a761214b565b5b60200101907effffffffffffffffffffffffffffffffffffffffffffffffffffffffffffff1916908160001a905350600060018460026112e8919061223b565b6112f2919061227d565b90505b6001811115611392577f3031323334353637383961626364656600000000000000000000000000000000600f8616601081106113345761133361214b565b5b1a60f81b82828151811061134b5761134a61214b565b5b60200101907effffffffffffffffffffffffffffffffffffffffffffffffffffffffffffff1916908160001a905350600485901c94508061138b906122e0565b90506112f5565b50600084146113d6576040517f08c379a00000000000000000000000000000000000000000000000000000000081526004016113cd90612355565b60405180910390fd5b8091505092915050565b60006113ec838361157c565b61144557826000018290806001815401808255809150506001900390600052602060002001600090919091909150558260000180549050836001016000848152602001908152602001600020819055506001905061144a565b600090505b92915050565b600080836001016000848152602001908152602001600020549050600081146115585760006001826114829190612375565b905060006001866000018054905061149a9190612375565b90508181146115095760008660000182815481106114bb576114ba61214b565b5b90600052602060002001549050808760000184815481106114df576114de61214b565b5b90600052602060002001819055508387600101600083815260200190815260200160002081905550505b8560000180548061151d5761151c6123a9565b5b60019003818190600052602060002001600090559055856001016000868152602001908152602001600020600090556001935050505061155e565b60009150505b92915050565b6060611573848460008561159f565b90509392505050565b600080836001016000848152602001908152602001600020541415905092915050565b6060824710156115e4576040517f08c379a00000000000000000000000000000000000000000000000000000000081526004016115db9061244a565b60405180910390fd5b6000808673ffffffffffffffffffffffffffffffffffffffff16858760405161160d91906124b1565b60006040518083038185875af1925050503d806000811461164a576040519150601f19603f3d011682016040523d82523d6000602084013e61164f565b606091505b50915091506116608783838761166c565b92505050949350505050565b606083156116ce5760008351036116c657611686856116e1565b6116c5576040517f08c379a00000000000000000000000000000000000000000000000000000000081526004016116bc90612514565b60405180910390fd5b5b8290506116d9565b6116d88383611704565b5b949350505050565b6000808273ffffffffffffffffffffffffffffffffffffffff163b119050919050565b6000825111156117175781518083602001fd5b806040517f08c379a000000000000000000000000000000000000000000000000000000000815260040161174b9190612129565b60405180910390fd5b600080fd5b6000819050919050565b61176c81611759565b811461177757600080fd5b50565b60008135905061178981611763565b92915050565b600073ffffffffffffffffffffffffffffffffffffffff82169050919050565b60006117ba8261178f565b9050919050565b6117ca816117af565b81146117d557600080fd5b50565b6000813590506117e7816117c1565b92915050565b6000806040838503121561180457611803611754565b5b60006118128582860161177a565b9250506020611823858286016117d8565b9150509250929050565b60007fffffffff0000000000000000000000000000000000000000000000000000000082169050919050565b6118628161182d565b811461186d57600080fd5b50565b60008135905061187f81611859565b92915050565b60006020828403121561189b5761189a611754565b5b60006118a984828501611870565b91505092915050565b60008115159050919050565b6118c7816118b2565b82525050565b60006020820190506118e260008301846118be565b92915050565b60006118f3826117af565b9050919050565b611903816118e8565b811461190e57600080fd5b50565b600081359050611920816118fa565b92915050565b60006020828403121561193c5761193b611754565b5b600061194a84828501611911565b91505092915050565b6000819050919050565b61196681611953565b811461197157600080fd5b50565b6000813590506119838161195d565b92915050565b60006020828403121561199f5761199e611754565b5b60006119ad84828501611974565b91505092915050565b6119bf81611953565b82525050565b60006020820190506119da60008301846119b6565b92915050565b600080604083850312156119f7576119f6611754565b5b6000611a0585828601611974565b9250506020611a16858286016117d8565b9150509250929050565b611a29816118b2565b8114611a3457600080fd5b50565b600081359050611a4681611a20565b92915050565b600060208284031215611a6257611a61611754565b5b6000611a7084828501611a37565b91505092915050565b611a82816117af565b82525050565b6000602082019050611a9d6000830184611a79565b92915050565b60008060408385031215611aba57611ab9611754565b5b6000611ac885828601611974565b9250506020611ad98582860161177a565b9150509250929050565b600060208284031215611af957611af8611754565b5b6000611b078482850161177a565b91505092915050565b611b1981611759565b82525050565b6000602082019050611b346000830184611b10565b92915050565b600060208284031215611b5057611b4f611754565b5b6000611b5e848285016117d8565b91505092915050565b600082825260208201905092915050565b7f43616c6c6572206973206e6f7420612077697468647261776572000000000000600082015250565b6000611bae601a83611b67565b9150611bb982611b78565b602082019050919050565b60006020820190508181036000830152611bdd81611ba1565b9050919050565b7f5769746864726177206973206e6f7420617661696c61626c6500000000000000600082015250565b6000611c1a601983611b67565b9150611c2582611be4565b602082019050919050565b60006020820190508181036000830152611c4981611c0d565b9050919050565b7f457863656564206d617869756d20616d6f756e74000000000000000000000000600082015250565b6000611c86601483611b67565b9150611c9182611c50565b602082019050919050565b60006020820190508181036000830152611cb581611c79565b9050919050565b6000604082019050611cd16000830185611a79565b611cde6020830184611b10565b9392505050565b600081519050611cf481611a20565b92915050565b600060208284031215611d1057611d0f611754565b5b6000611d1e84828501611ce5565b91505092915050565b7f416363657373436f6e74726f6c3a2063616e206f6e6c792072656e6f756e636560008201527f20726f6c657320666f722073656c660000000000000000000000000000000000602082015250565b6000611d83602f83611b67565b9150611d8e82611d27565b604082019050919050565b60006020820190508181036000830152611db281611d76565b9050919050565b600081519050611dc881611763565b92915050565b600060208284031215611de457611de3611754565b5b6000611df284828501611db9565b91505092915050565b7f496e73756666696369656e74206163636f756e742062616c616e636500000000600082015250565b6000611e31601c83611b67565b9150611e3c82611dfb565b602082019050919050565b60006020820190508181036000830152611e6081611e24565b9050919050565b7f4f776e61626c653a206e6577206f776e657220697320746865207a65726f206160008201527f6464726573730000000000000000000000000000000000000000000000000000602082015250565b6000611ec3602683611b67565b9150611ece82611e67565b604082019050919050565b60006020820190508181036000830152611ef281611eb6565b9050919050565b7f4f776e61626c653a2063616c6c6572206973206e6f7420746865206f776e6572600082015250565b6000611f2f602083611b67565b9150611f3a82611ef9565b602082019050919050565b60006020820190508181036000830152611f5e81611f22565b9050919050565b6000606082019050611f7a6000830186611a79565b611f876020830185611a79565b611f946040830184611b10565b949350505050565b600081905092915050565b7f416363657373436f6e74726f6c3a206163636f756e7420000000000000000000600082015250565b6000611fdd601783611f9c565b9150611fe882611fa7565b601782019050919050565b600081519050919050565b60005b8381101561201c578082015181840152602081019050612001565b60008484015250505050565b600061203382611ff3565b61203d8185611f9c565b935061204d818560208601611ffe565b80840191505092915050565b7f206973206d697373696e6720726f6c6520000000000000000000000000000000600082015250565b600061208f601183611f9c565b915061209a82612059565b601182019050919050565b60006120b082611fd0565b91506120bc8285612028565b91506120c782612082565b91506120d38284612028565b91508190509392505050565b6000601f19601f8301169050919050565b60006120fb82611ff3565b6121058185611b67565b9350612115818560208601611ffe565b61211e816120df565b840191505092915050565b6000602082019050818103600083015261214381846120f0565b905092915050565b7f4e487b7100000000000000000000000000000000000000000000000000000000600052603260045260246000fd5b7f5361666545524332303a204552433230206f7065726174696f6e20646964206e60008201527f6f74207375636365656400000000000000000000000000000000000000000000602082015250565b60006121d6602a83611b67565b91506121e18261217a565b604082019050919050565b60006020820190508181036000830152612205816121c9565b9050919050565b7f4e487b7100000000000000000000000000000000000000000000000000000000600052601160045260246000fd5b600061224682611759565b915061225183611759565b925082820261225f81611759565b915082820484148315176122765761227561220c565b5b5092915050565b600061228882611759565b915061229383611759565b92508282019050808211156122ab576122aa61220c565b5b92915050565b7f4e487b7100000000000000000000000000000000000000000000000000000000600052604160045260246000fd5b60006122eb82611759565b9150600082036122fe576122fd61220c565b5b600182039050919050565b7f537472696e67733a20686578206c656e67746820696e73756666696369656e74600082015250565b600061233f602083611b67565b915061234a82612309565b602082019050919050565b6000602082019050818103600083015261236e81612332565b9050919050565b600061238082611759565b915061238b83611759565b92508282039050818111156123a3576123a261220c565b5b92915050565b7f4e487b7100000000000000000000000000000000000000000000000000000000600052603160045260246000fd5b7f416464726573733a20696e73756666696369656e742062616c616e636520666f60008201527f722063616c6c0000000000000000000000000000000000000000000000000000602082015250565b6000612434602683611b67565b915061243f826123d8565b604082019050919050565b6000602082019050818103600083015261246381612427565b9050919050565b600081519050919050565b600081905092915050565b600061248b8261246a565b6124958185612475565b93506124a5818560208601611ffe565b80840191505092915050565b60006124bd8284612480565b915081905092915050565b7f416464726573733a2063616c6c20746f206e6f6e2d636f6e7472616374000000600082015250565b60006124fe601d83611b67565b9150612509826124c8565b602082019050919050565b6000602082019050818103600083015261252d816124f1565b905091905056fea2646970667358221220099dfc7233e71270894d8f5782f6e206bb398917ff110251398cd45f0e7ad86d64736f6c63430008130033",
  "linkReferences": {},
  "deployedLinkReferences": {}
}